:100000000C9462000C948A000C948A000C948A0070
:100010000C948A000C948A000C948A000C948A0038
:100020000C948A000C948A000C948A000C948A0028
:100030000C948A000C948A000C948A000C948A0018
:100040000C94E6020C948A000C948A000C948A00AA
:100050000C948A000C948A000C948A000C948A00F8
:100060000C948A000C948A000000000024002700F1
:100070002A0000000000250028002B0000000000DE
:1000800023002600290004040404040404040202DA
:100090000202020203030303030301020408102007
:1000A0004080010204081020010204081020000012
:1000B0000007000201000003040600000000000029
:1000C00000008C0011241FBECFEFD8E0DEBFCDBFF3
:1000D00011E0A0E0B1E0E4E2FAE002C005900D9288
:1000E000A835B107D9F711E0A8E5B1E001C01D922C
:1000F000A837B107E1F710E0C4ECD0E004C02297C4
:10010000FE010E940C05C23CD107C9F70E94B2044F
:100110000C9410050C940000CF92EF920F9388E599
:1001200091E06CE04BE025E004E053E0E52E32E0A6
:10013000C32E0E94AD020F91EF90CF90089588E0FA
:100140000E945F0490936E0180936D01892B89F466
:1001500088E591E00E94EF0188E591E060E071E0C0
:100160000E94070562E370E080E090E00E942E03A9
:10017000089588E591E00E94EF0188E591E061E152
:1001800071E00E94070562E370E080E090E00E9469
:100190002E0388E591E060E040E00E94C0010895F0
:1001A0000F931F9308E511E0C80160E142E020E0F1
:1001B0000E94F701C80165E271E00E940705C801CD
:1001C00060E041E00E94C001C80167E371E00E9465
:1001D000070568E873E180E090E00E942E0388E064
:1001E00060E00E94CC031F910F9108950F931F931D
:1001F0008C01FC01868160E00E940B0481E090E0AC
:100200000E948703F801868161E00E940B0481E06F
:1002100090E00E948703F801868160E00E940B0451
:1002200084E690E00E9487031F910F910895CF927A
:10023000DF92EF92FF920F931F93CF93DF93D82E0D
:10024000C92E282F392FC9018C01C0E0D0E0E62E3D
:10025000FF24F801878161E00E94CC03B7010C2ED6
:1002600002C0759567950A94E2F76170F80187817D
:100270000E940B0421960F5F1F4FC830D10549F72C
:100280008D2D9C2D0E94F600DF91CF911F910F9133
:10029000FF90EF90DF90CF900895CF92DF92EF9292
:1002A000FF920F931F93CF93DF93D82EC92E282F41
:1002B000392FC9018C01C0E0D0E0E62EFF24F801FF
:1002C000878161E00E94CC03B7010C2E02C07595B6
:1002D00067950A94E2F76170F80187810E940B0428
:1002E00021960F5F1F4FC430D10549F78D2D9C2DEE
:1002F0000E94F600DF91CF911F910F91FF90EF9038
:10030000DF90CF9008951F93CF93DF93EC01162FCA
:100310008C81642F0E940B048D818F3F19F060E067
:100320000E940B048F8584FF05C0CE01612F0E94BF
:1003300017010EC0612F70E084E0759567958A956E
:10034000E1F7CE010E944D01CE01612F0E944D01C7
:10035000DF91CF911F91089541E00E94830181E0D8
:1003600090E0089540E00E9483010895FC016089B7
:10037000862F8460808B6C60CF010E94B20108954B
:10038000DF93CF93CDB7DEB728970FB6F894DEBFD3
:100390000FBECDBF9C01FE013196A0E5B1E088E023
:1003A0000D9001928150E1F7F9018389481710F00F
:1003B000482F4150E42FF0E0EE0FFF1FEC0FFD1F20
:1003C0008181680F6068C9010E94B20128960FB64A
:1003D000F894DEBF0FBECDBFCF91DF91089561E0ED
:1003E0000E94B20180ED97E00E9487030895CF93A9
:1003F000DF93EC01423018F08F8588608F874B8B3C
:100400001C8A222329F0413019F48F8584608F875C
:1004100080E593EC0E9487038C8160E00E940B04CE
:100420008E8160E00E940B048D818F3F19F060E0A7
:100430000E940B046F8564FD1DC0CE0163E00E9425
:100440004D0184E991E10E948703CE0163E00E949F
:100450004D0184E991E10E948703CE0163E00E948F
:100460004D0186E990E00E948703CE0162E00E9480
:100470004D0116C06062CE010E94B20184E991E193
:100480000E9487036F856062CE010E94B20186E9F7
:1004900090E00E9487036F856062CE010E94B201E6
:1004A0006F856062CE010E94B20184E0888BCE012C
:1004B0000E94B601CE010E94EF0182E0898BCE013D
:1004C00066E00E94B201DF91CF9108956F927F9212
:1004D0008F92AF92CF92EF920F931F93DF93CF93B0
:1004E000CDB7DEB73C01162F842FF301448325835B
:1004F0000683E782C086A18682869D8593879E8536
:1005000094879F8595879889968761E00E94CC03A0
:10051000F30185818F3F19F061E00E94CC03F30164
:10052000868161E00E94CC03112319F0F301178644
:1005300003C080E1F3018787C30160E141E020E06F
:100540000E94F701CF91DF911F910F91EF90CF9013
:10055000AF908F907F906F9008958F92AF92CF92CF
:10056000EF920F931F93CF93DF93DC01362F542F1D
:10057000722F102FAE2C8C2C13961C921E92129759
:100580008CE491E011969C938E9300D000D0EDB74F
:10059000FEB73196CDB7DEB719821182128213826F
:1005A000CD0161E0432F2FEF052FE72EC12E0E94D2
:1005B00066020F900F900F900F90DF91CF911F91D7
:1005C0000F91EF90CF90AF908F9008951F920F9260
:1005D0000FB60F9211242F933F938F939F93AF9356
:1005E000BF938091730190917401A0917501B091B6
:1005F0007601309177010196A11DB11D232F2D5F4A
:100600002D3720F02D570196A11DB11D20937701A4
:100610008093730190937401A0937501B093760158
:1006200080916F0190917001A0917101B091720160
:100630000196A11DB11D80936F0190937001A0934D
:100640007101B0937201BF91AF919F918F913F91D2
:100650002F910F900FBE0F901F9018959B01AC012A
:100660007FB7F89480916F0190917001A091710112
:10067000B091720166B5A89B05C06F3F19F0019655
:10068000A11DB11D7FBFBA2FA92F982F8827860FD4
:10069000911DA11DB11D62E0880F991FAA1FBB1FEC
:1006A0006A95D1F7BC012DC0FFB7F89480916F0116
:1006B00090917001A0917101B0917201E6B5A89B73
:1006C00005C0EF3F19F00196A11DB11DFFBFBA2F64
:1006D000A92F982F88278E0F911DA11DB11DE2E033
:1006E000880F991FAA1FBB1FEA95D1F7861B970B8E
:1006F000885E9340C8F221503040404050406851DD
:100700007C4F211531054105510571F6089501977A
:1007100039F0880F991F880F991F02970197F1F7F9
:100720000895789484B5826084BD84B5816084BD69
:1007300085B5826085BD85B5816085BDEEE6F0E05A
:10074000808181608083E1E8F0E0108280818260B6
:100750008083808181608083E0E8F0E08081816037
:100760008083E1EBF0E0808184608083E0EBF0E067
:10077000808181608083EAE7F0E08081846080830B
:1007800080818260808380818160808380818068B5
:1007900080831092C1000895CF93DF93482F50E0DB
:1007A000CA0186569F4FFC0134914A575F4FFA01A8
:1007B0008491882369F190E0880F991FFC01E85922
:1007C000FF4FA591B491FC01EE58FF4FC591D49114
:1007D000662351F42FB7F8948C91932F9095892329
:1007E0008C93888189230BC0623061F42FB7F89411
:1007F0008C91932F909589238C938881832B888368
:100800002FBF06C09FB7F8948C91832B8C939FBF0A
:10081000DF91CF910895482F50E0CA0182559F4F34
:10082000FC012491CA0186569F4FFC0194914A57BE
:100830005F4FFA013491332309F440C0222351F170
:10084000233071F0243028F42130A1F0223011F54A
:1008500014C02630B1F02730C1F02430D9F404C0E0
:10086000809180008F7703C0809180008F7D80937E
:10087000800010C084B58F7702C084B58F7D84BDA1
:1008800009C08091B0008F7703C08091B0008F7D48
:100890008093B000E32FF0E0EE0FFF1FEE58FF4F04
:1008A000A591B4912FB7F894662321F48C9190957B
:1008B000892302C08C91892B8C932FBF0895682FB8
:1008C00070E0CB0182559F4FFC012491CB018656ED
:1008D0009F4FFC0144916A577F4FFB0194919923EC
:1008E00019F420E030E03CC0222351F1233071F0B4
:1008F000243028F42130A1F0223011F514C0263024
:10090000B1F02730C1F02430D9F404C080918000C8
:100910008F7703C0809180008F7D8093800010C00E
:1009200084B58F7702C084B58F7D84BD09C0809166
:10093000B0008F7703C08091B0008F7D8093B000AE
:10094000892F90E0880F991F84589F4FFC01A59133
:10095000B4918C9120E030E0842311F021E030E06C
:10096000C9010895CF93DF930E9491030E94D000A4
:10097000C0E0D0E00E949F002097E1F30E940000B9
:10098000F9CFCF92DF92EF92FF920F931F93CF9305
:10099000DF937C016B018A01C0E0D0E00FC0D6017B
:1009A0006D916D01D701ED91FC910190F081E02DE9
:1009B000C7010995C80FD91F015010400115110535
:1009C00071F7CE01DF91CF911F910F91FF90EF90C2
:1009D000DF90CF900895CF93DF93EC0161157105FF
:1009E00019F420E030E00FC0DB010D900020E9F7A2
:1009F0001197A61BB70BE881F9810280F381E02DE6
:100A0000AD0109959C01C901DF91CF9108950E9424
:100A1000EB040895EE0FFF1F0590F491E02D09946B
:040A2000F894FFCF78
:100A24004D6F74696F6E20446574656374656420EA
:100A3400004D6F74696F6E204E6F74204465746549
:100A4400637465640057656C636F6D6520746F2013
:100A54004D6F74696F6E00446574656374696F6E7D
:100A64002053797374656D0000000000AC01C1046B
:080A74000000400014005400D2
:00000001FF
